{
  "contractName": "DbiliaToken",
  "abi": [
    {
      "inputs": [],
      "stateMutability": "nonpayable",
      "type": "constructor"
    },
    {
      "anonymous": false,
      "inputs": [
        {
          "indexed": false,
          "internalType": "string",
          "name": "cardId",
          "type": "string"
        },
        {
          "indexed": false,
          "internalType": "string",
          "name": "edition",
          "type": "string"
        },
        {
          "indexed": false,
          "internalType": "string",
          "name": "tokenURI",
          "type": "string"
        }
      ],
      "name": "mintedWithETH",
      "type": "event"
    },
    {
      "anonymous": false,
      "inputs": [
        {
          "indexed": false,
          "internalType": "address",
          "name": "userId",
          "type": "address"
        },
        {
          "indexed": false,
          "internalType": "string",
          "name": "cardId",
          "type": "string"
        },
        {
          "indexed": false,
          "internalType": "string",
          "name": "edition",
          "type": "string"
        },
        {
          "indexed": false,
          "internalType": "string",
          "name": "tokenURI",
          "type": "string"
        }
      ],
      "name": "mintedWithUSD",
      "type": "event"
    },
    {
      "inputs": [],
      "name": "approveGasPayment",
      "outputs": [
        {
          "internalType": "uint8",
          "name": "",
          "type": "uint8"
        }
      ],
      "stateMutability": "nonpayable",
      "type": "function"
    },
    {
      "inputs": [
        {
          "internalType": "address",
          "name": "userId",
          "type": "address"
        },
        {
          "internalType": "string",
          "name": "cardId",
          "type": "string"
        },
        {
          "internalType": "string",
          "name": "edition",
          "type": "string"
        }
      ],
      "name": "mintWithUSD",
      "outputs": [],
      "stateMutability": "nonpayable",
      "type": "function"
    },
    {
      "inputs": [
        {
          "internalType": "string",
          "name": "cardId",
          "type": "string"
        },
        {
          "internalType": "string",
          "name": "edition",
          "type": "string"
        }
      ],
      "name": "mintWithETH",
      "outputs": [],
      "stateMutability": "nonpayable",
      "type": "function"
    },
    {
      "inputs": [
        {
          "internalType": "address",
          "name": "tokenOwner",
          "type": "address"
        }
      ],
      "name": "balanceOf",
      "outputs": [
        {
          "internalType": "uint256",
          "name": "",
          "type": "uint256"
        }
      ],
      "stateMutability": "view",
      "type": "function",
      "constant": true
    },
    {
      "inputs": [
        {
          "internalType": "uint256",
          "name": "tokenId",
          "type": "uint256"
        }
      ],
      "name": "viewTokenIdOwner",
      "outputs": [
        {
          "internalType": "address",
          "name": "",
          "type": "address"
        }
      ],
      "stateMutability": "view",
      "type": "function",
      "constant": true
    },
    {
      "inputs": [
        {
          "internalType": "uint256",
          "name": "tokenId",
          "type": "uint256"
        }
      ],
      "name": "viewTokenURIOwner",
      "outputs": [
        {
          "internalType": "address",
          "name": "",
          "type": "address"
        }
      ],
      "stateMutability": "nonpayable",
      "type": "function"
    },
    {
      "inputs": [],
      "name": "viewTokens",
      "outputs": [
        {
          "internalType": "uint256[]",
          "name": "",
          "type": "uint256[]"
        }
      ],
      "stateMutability": "view",
      "type": "function",
      "constant": true
    }
  ],
  "bytecode": "0x60806040526000600660146101000a81548160ff021916908360ff16021790555034801561002c57600080fd5b5033600660006101000a81548173ffffffffffffffffffffffffffffffffffffffff021916908373ffffffffffffffffffffffffffffffffffffffff1602179055506118428061007d6000396000f3fe608060405234801561001057600080fd5b506004361061007d5760003560e01c806370a082311161005b57806370a08231146100ec578063abe2b6621461011c578063ea8522261461013a578063f9ca2ac5146101565761007d565b80632ecb4dd0146100825780634959de601461009e5780634bf5bf35146100ce575b600080fd5b61009c60048036038101906100979190610dd0565b610186565b005b6100b860048036038101906100b39190610e3c565b6104d6565b6040516100c59190611354565b60405180910390f35b6100d661053e565b6040516100e391906113c9565b60405180910390f35b61010660048036038101906101019190610d28565b610596565b6040516101139190611517565b60405180910390f35b61012461064d565b6040516101319190611532565b60405180910390f35b610154600480360381019061014f9190610d51565b610702565b005b610170600480360381019061016b9190610e3c565b6109f3565b60405161017d9190611354565b60405180910390f35b600660009054906101000a900473ffffffffffffffffffffffffffffffffffffffff1673ffffffffffffffffffffffffffffffffffffffff163373ffffffffffffffffffffffffffffffffffffffff161415610217576040517f08c379a000000000000000000000000000000000000000000000000000000000815260040161020e90611477565b60405180910390fd5b60003373ffffffffffffffffffffffffffffffffffffffff163111610271576040517f08c379a000000000000000000000000000000000000000000000000000000000815260040161026890611437565b60405180910390fd5b33600860006101000a81548173ffffffffffffffffffffffffffffffffffffffff021916908373ffffffffffffffffffffffffffffffffffffffff16021790555060016000803373ffffffffffffffffffffffffffffffffffffffff1673ffffffffffffffffffffffffffffffffffffffff168152602001908152602001600020546102fd9190611623565b6000803373ffffffffffffffffffffffffffffffffffffffff1673ffffffffffffffffffffffffffffffffffffffff16815260200190815260200160002081905550600160055461034e9190611623565b60058190555060026005549080600181540180825580915050600190039060005260206000200160009091909190915055600860009054906101000a900473ffffffffffffffffffffffffffffffffffffffff1660016000600554815260200190815260200160002060006101000a81548173ffffffffffffffffffffffffffffffffffffffff021916908373ffffffffffffffffffffffffffffffffffffffff160217905550610400600554610a30565b60079080519060200190610415929190610bf3565b50600860009054906101000a900473ffffffffffffffffffffffffffffffffffffffff166003600760405161044a919061133d565b908152602001604051809103902060006101000a81548173ffffffffffffffffffffffffffffffffffffffff021916908373ffffffffffffffffffffffffffffffffffffffff1602179055507f6320c3e26a015cde27c58613f733999908fb9ea24d61ed9eab5478d86cd9917e828260076040516104ca939291906113eb565b60405180910390a15050565b60006104e182610a30565b600790805190602001906104f6929190610bf3565b5060036007604051610508919061133d565b908152602001604051809103902060009054906101000a900473ffffffffffffffffffffffffffffffffffffffff169050919050565b6060600280548060200260200160405190810160405280929190818152602001828054801561058c57602002820191906000526020600020905b815481526020019060010190808311610578575b5050505050905090565b60008073ffffffffffffffffffffffffffffffffffffffff168273ffffffffffffffffffffffffffffffffffffffff161415610607576040517f08c379a00000000000000000000000000000000000000000000000000000000081526004016105fe906114d7565b60405180910390fd5b6000808373ffffffffffffffffffffffffffffffffffffffff1673ffffffffffffffffffffffffffffffffffffffff168152602001908152602001600020549050919050565b60003373ffffffffffffffffffffffffffffffffffffffff16600660009054906101000a900473ffffffffffffffffffffffffffffffffffffffff1673ffffffffffffffffffffffffffffffffffffffff16146106df576040517f08c379a00000000000000000000000000000000000000000000000000000000081526004016106d690611497565b60405180910390fd5b6001600660146101000a81548160ff021916908360ff1602179055506000905090565b3373ffffffffffffffffffffffffffffffffffffffff16600660009054906101000a900473ffffffffffffffffffffffffffffffffffffffff1673ffffffffffffffffffffffffffffffffffffffff1614610792576040517f08c379a0000000000000000000000000000000000000000000000000000000008152600401610789906114f7565b60405180910390fd5b6001600660149054906101000a900460ff1660ff16146107e7576040517f08c379a00000000000000000000000000000000000000000000000000000000081526004016107de906114b7565b60405180910390fd5b6001600080600660009054906101000a900473ffffffffffffffffffffffffffffffffffffffff1673ffffffffffffffffffffffffffffffffffffffff1673ffffffffffffffffffffffffffffffffffffffff16815260200190815260200160002060008282546108589190611623565b92505081905550600160055461086e9190611623565b60058190555060026005549080600181540180825580915050600190039060005260206000200160009091909190915055600660009054906101000a900473ffffffffffffffffffffffffffffffffffffffff1660016000600554815260200190815260200160002060006101000a81548173ffffffffffffffffffffffffffffffffffffffff021916908373ffffffffffffffffffffffffffffffffffffffff160217905550610920600554610a30565b60079080519060200190610935929190610bf3565b508260036007604051610948919061133d565b908152602001604051809103902060006101000a81548173ffffffffffffffffffffffffffffffffffffffff021916908373ffffffffffffffffffffffffffffffffffffffff1602179055506000600660146101000a81548160ff021916908360ff1602179055507f85ac0a330f9517710726693625aa1169e3cfbd21d7fb5d9930875a45a23080f683838360076040516109e6949392919061136f565b60405180910390a1505050565b60006001600083815260200190815260200160002060009054906101000a900473ffffffffffffffffffffffffffffffffffffffff169050919050565b6060610a3b82610b70565b610a7a576040517f08c379a0000000000000000000000000000000000000000000000000000000008152600401610a7190611457565b60405180910390fd5b6000610a84610bdc565b90506000815111610aa45760405180602001604052806000815250610ac7565b8083604051602001610ab7929190611315565b6040516020818303038152906040525b60079080519060200190610adc929190610bf3565b5060078054610aea90611704565b80601f0160208091040260200160405190810160405280929190818152602001828054610b1690611704565b8015610b635780601f10610b3857610100808354040283529160200191610b63565b820191906000526020600020905b815481529060010190602001808311610b4657829003601f168201915b5050505050915050919050565b60008073ffffffffffffffffffffffffffffffffffffffff166001600084815260200190815260200160002060009054906101000a900473ffffffffffffffffffffffffffffffffffffffff1673ffffffffffffffffffffffffffffffffffffffff1614159050919050565b606060405180602001604052806000815250905090565b828054610bff90611704565b90600052602060002090601f016020900481019282610c215760008555610c68565b82601f10610c3a57805160ff1916838001178555610c68565b82800160010185558215610c68579182015b82811115610c67578251825591602001919060010190610c4c565b5b509050610c759190610c79565b5090565b5b80821115610c92576000816000905550600101610c7a565b5090565b6000610ca9610ca48461157e565b61154d565b905082815260208101848484011115610cc157600080fd5b610ccc8482856116c2565b509392505050565b600081359050610ce3816117de565b92915050565b600082601f830112610cfa57600080fd5b8135610d0a848260208601610c96565b91505092915050565b600081359050610d22816117f5565b92915050565b600060208284031215610d3a57600080fd5b6000610d4884828501610cd4565b91505092915050565b600080600060608486031215610d6657600080fd5b6000610d7486828701610cd4565b935050602084013567ffffffffffffffff811115610d9157600080fd5b610d9d86828701610ce9565b925050604084013567ffffffffffffffff811115610dba57600080fd5b610dc686828701610ce9565b9150509250925092565b60008060408385031215610de357600080fd5b600083013567ffffffffffffffff811115610dfd57600080fd5b610e0985828601610ce9565b925050602083013567ffffffffffffffff811115610e2657600080fd5b610e3285828601610ce9565b9150509250929050565b600060208284031215610e4e57600080fd5b6000610e5c84828501610d13565b91505092915050565b6000610e7183836112d1565b60208301905092915050565b610e8681611679565b82525050565b6000610e97826115d3565b610ea181856115f6565b9350610eac836115ae565b8060005b83811015610edd578151610ec48882610e65565b9750610ecf836115e9565b925050600181019050610eb0565b5085935050505092915050565b6000610ef5826115de565b610eff8185611607565b9350610f0f8185602086016116d1565b610f18816117cd565b840191505092915050565b6000610f2e826115de565b610f388185611618565b9350610f488185602086016116d1565b80840191505092915050565b60008154610f6181611704565b610f6b8186611607565b94506001821660008114610f865760018114610f9857610fcb565b60ff1983168652602086019350610fcb565b610fa1856115be565b60005b83811015610fc357815481890152600182019150602081019050610fa4565b808801955050505b50505092915050565b60008154610fe181611704565b610feb8186611618565b9450600182166000811461100657600181146110175761104a565b60ff1983168652818601935061104a565b611020856115be565b60005b8381101561104257815481890152600182019150602081019050611023565b838801955050505b50505092915050565b6000611060601f83611607565b91507f5573657220646f6573206e6f74206861766520656e6f756768206574686572006000830152602082019050919050565b60006110a0601f83611607565b91507f55524920717565727920666f72206e6f6e6578697374656e7420746f6b656e006000830152602082019050919050565b60006110e0602783611607565b91507f557365722073686f756c64206469726563746c792063616c6c2074686973206660008301527f756e6374696f6e000000000000000000000000000000000000000000000000006020830152604082019050919050565b6000611146603383611607565b91507f4f6e6c79204462696c6961206f776e6564206163636f756e742063616e20617060008301527f70726f766520676173207061796d656e74732e000000000000000000000000006020830152604082019050919050565b60006111ac603383611607565b91507f4761732066656573206e65656420746f206265207061696420696e206164766160008301527f6e636520666f7220555344206d696e74696e67000000000000000000000000006020830152604082019050919050565b6000611212602a83611607565b91507f4552433732313a2062616c616e636520717565727920666f7220746865207a6560008301527f726f2061646472657373000000000000000000000000000000000000000000006020830152604082019050919050565b6000611278603383611607565b91507f4f6e6c79204462696c6961206f776e6564206163636f756e742063616e206d6960008301527f6e7420746f6b656e732077697468205553442e000000000000000000000000006020830152604082019050919050565b6112da816116ab565b82525050565b6112e9816116ab565b82525050565b6113006112fb826116ab565b611736565b82525050565b61130f816116b5565b82525050565b60006113218285610f23565b915061132d82846112ef565b6020820191508190509392505050565b60006113498284610fd4565b915081905092915050565b60006020820190506113696000830184610e7d565b92915050565b60006080820190506113846000830187610e7d565b81810360208301526113968186610eea565b905081810360408301526113aa8185610eea565b905081810360608301526113be8184610f54565b905095945050505050565b600060208201905081810360008301526113e38184610e8c565b905092915050565b600060608201905081810360008301526114058186610eea565b905081810360208301526114198185610eea565b9050818103604083015261142d8184610f54565b9050949350505050565b6000602082019050818103600083015261145081611053565b9050919050565b6000602082019050818103600083015261147081611093565b9050919050565b60006020820190508181036000830152611490816110d3565b9050919050565b600060208201905081810360008301526114b081611139565b9050919050565b600060208201905081810360008301526114d08161119f565b9050919050565b600060208201905081810360008301526114f081611205565b9050919050565b600060208201905081810360008301526115108161126b565b9050919050565b600060208201905061152c60008301846112e0565b92915050565b60006020820190506115476000830184611306565b92915050565b6000604051905081810181811067ffffffffffffffff821117156115745761157361179e565b5b8060405250919050565b600067ffffffffffffffff8211156115995761159861179e565b5b601f19601f8301169050602081019050919050565b6000819050602082019050919050565b60008190508160005260206000209050919050565b600081519050919050565b600081519050919050565b6000602082019050919050565b600082825260208201905092915050565b600082825260208201905092915050565b600081905092915050565b600061162e826116ab565b9150611639836116ab565b9250827fffffffffffffffffffffffffffffffffffffffffffffffffffffffffffffffff0382111561166e5761166d611740565b5b828201905092915050565b60006116848261168b565b9050919050565b600073ffffffffffffffffffffffffffffffffffffffff82169050919050565b6000819050919050565b600060ff82169050919050565b82818337600083830152505050565b60005b838110156116ef5780820151818401526020810190506116d4565b838111156116fe576000848401525b50505050565b6000600282049050600182168061171c57607f821691505b602082108114156117305761172f61176f565b5b50919050565b6000819050919050565b7f4e487b7100000000000000000000000000000000000000000000000000000000600052601160045260246000fd5b7f4e487b7100000000000000000000000000000000000000000000000000000000600052602260045260246000fd5b7f4e487b7100000000000000000000000000000000000000000000000000000000600052604160045260246000fd5b6000601f19601f8301169050919050565b6117e781611679565b81146117f257600080fd5b50565b6117fe816116ab565b811461180957600080fd5b5056fea2646970667358221220756d296be14e69f2be21aba3cee3ea5aaf1500f21657c0c6d752723a4611801d64736f6c63430008000033",
  "immutableReferences": {},
  "source": "pragma solidity ^0.8.0;\n\n\ncontract DbiliaToken {\n    \n    //Mapping user address to token count\n    mapping (address => uint256) private _balances;\n    \n    //Mapping tokenId to user address\n    mapping (uint256 => address) private _tokenIdOwner;\n    uint256[] tokenIds;\n    \n    //Mapping tokenURI to user address\n    mapping (string => address ) private _tokenOwner;\n    \n    //Mapping cardId to edition \n    mapping (string => string ) private _edition;\n    \n    uint256 tokenId;\n    address dbilia;\n    uint8 gasPaid=0;\n    string tokenURI;\n    address userId;\n    \n    event mintedWithUSD(address userId, string cardId, string edition, string tokenURI);\n    \n    event mintedWithETH(string cardId, string edition, string tokenURI);\n    \n    constructor(){\n        dbilia=msg.sender;\n    }\n    \n    //function to confirm if gas fees is paid to Dbilia and trigger mintWithUSD function\n    function approveGasPayment() public returns(uint8){\n        require(dbilia == msg.sender,\"Only Dbilia owned account can approve gas payments.\");\n        gasPaid = 1;\n        return 0;\n    }\n    \n    function setTokenURI(uint256 tokenId) internal virtual returns (string memory) {\n        require(_exists(tokenId), \"URI query for nonexistent token\");\n        string memory baseURI = _baseURI();\n        tokenURI= bytes(baseURI).length > 0 ? string(abi.encodePacked(baseURI, tokenId)): '';\n        return tokenURI;\n    }\n    \n    function mintWithUSD(address userId, string memory cardId, string memory edition) public virtual{\n        require(dbilia == msg.sender,\"Only Dbilia owned account can mint tokens with USD.\");\n        require(gasPaid==1, \"Gas fees need to be paid in advance for USD minting\");\n        _balances[dbilia] +=1;\n        tokenId=tokenId+1;\n        tokenIds.push(tokenId);\n        _tokenIdOwner[tokenId] = dbilia;\n        tokenURI= setTokenURI(tokenId);\n        _tokenOwner[tokenURI] = userId;\n        gasPaid=0;\n        emit mintedWithUSD(userId, cardId,edition, tokenURI);\n    }\n \n    function mintWithETH(string memory cardId, string memory edition) public virtual{\n        require(msg.sender!=dbilia, \"User should directly call this function\");\n        require(msg.sender.balance>0, \"User does not have enough ether\");\n        userId = msg.sender;\n        _balances[msg.sender]= _balances[msg.sender] + 1;\n        tokenId=tokenId+1;\n        tokenIds.push(tokenId);\n        _tokenIdOwner[tokenId] = userId;\n        tokenURI= setTokenURI(tokenId);\n        _tokenOwner[tokenURI] = userId;\n        emit mintedWithETH(cardId, edition, tokenURI);\n    }\n    \n    function balanceOf(address tokenOwner) public view returns (uint) {\n        require(tokenOwner != address(0), \"ERC721: balance query for the zero address\");\n        return _balances[tokenOwner];\n    }\n\n    \n     function _baseURI() internal view virtual returns (string memory) {\n        return \"\";\n    }\n    function _exists(uint256 tokenId) internal view virtual returns (bool) {\n        return _tokenIdOwner[tokenId] != address(0);\n    }\n    function viewTokenIdOwner(uint256 tokenId) public view returns(address){\n        return _tokenIdOwner[tokenId];\n    }\n    function viewTokenURIOwner(uint256 tokenId) public returns(address){\n        tokenURI= setTokenURI(tokenId);\n        return _tokenOwner[tokenURI];\n    }\n    function viewTokens() public view returns(uint256[] memory){\n        return tokenIds;\n    }\n}",
  "sourcePath": "/Users/rogueguy/Downloads/Dbilia/DDbilia/contracts/DbiliaToken.sol",
  "compiler": {
    "name": "solc",
    "version": "0.8.0+commit.c7dfd78e.Emscripten.clang"
  },
  "schemaVersion": "3.4.1",
  "updatedAt": "2021-06-06T07:50:16.747Z",
  "networkType": "ethereum",
  "devdoc": {
    "kind": "dev",
    "methods": {},
    "version": 1
  },
  "userdoc": {
    "kind": "user",
    "methods": {},
    "version": 1
  }
}